{
  "_format": "hh-sol-artifact-1",
  "contractName": "DAO",
  "sourceName": "contracts/DAOContract.sol",
  "abi": [
    {
      "inputs": [
        {
          "internalType": "uint256",
          "name": "contributionTime",
          "type": "uint256"
        },
        {
          "internalType": "uint256",
          "name": "_voteTime",
          "type": "uint256"
        },
        {
          "internalType": "uint256",
          "name": "_minVotes",
          "type": "uint256"
        }
      ],
      "stateMutability": "nonpayable",
      "type": "constructor"
    },
    {
      "inputs": [],
      "name": "admin",
      "outputs": [
        {
          "internalType": "address",
          "name": "",
          "type": "address"
        }
      ],
      "stateMutability": "view",
      "type": "function"
    },
    {
      "inputs": [],
      "name": "availableFunds",
      "outputs": [
        {
          "internalType": "uint256",
          "name": "",
          "type": "uint256"
        }
      ],
      "stateMutability": "view",
      "type": "function"
    },
    {
      "inputs": [
        {
          "internalType": "address",
          "name": "investor",
          "type": "address"
        }
      ],
      "name": "contribute",
      "outputs": [],
      "stateMutability": "payable",
      "type": "function"
    },
    {
      "inputs": [],
      "name": "contributionEnd",
      "outputs": [
        {
          "internalType": "uint256",
          "name": "",
          "type": "uint256"
        }
      ],
      "stateMutability": "view",
      "type": "function"
    },
    {
      "inputs": [
        {
          "internalType": "string",
          "name": "name",
          "type": "string"
        },
        {
          "internalType": "uint256",
          "name": "amount",
          "type": "uint256"
        },
        {
          "internalType": "address payable",
          "name": "recipient",
          "type": "address"
        },
        {
          "internalType": "bytes",
          "name": "data",
          "type": "bytes"
        }
      ],
      "name": "createProposal",
      "outputs": [],
      "stateMutability": "nonpayable",
      "type": "function"
    },
    {
      "inputs": [
        {
          "internalType": "uint256",
          "name": "proposalId",
          "type": "uint256"
        }
      ],
      "name": "executePropsal",
      "outputs": [],
      "stateMutability": "nonpayable",
      "type": "function"
    },
    {
      "inputs": [
        {
          "internalType": "uint256",
          "name": "_newContributionTime",
          "type": "uint256"
        }
      ],
      "name": "extendContributionTime",
      "outputs": [],
      "stateMutability": "nonpayable",
      "type": "function"
    },
    {
      "inputs": [],
      "name": "getInvestors",
      "outputs": [
        {
          "internalType": "address[]",
          "name": "",
          "type": "address[]"
        }
      ],
      "stateMutability": "view",
      "type": "function"
    },
    {
      "inputs": [
        {
          "internalType": "address",
          "name": "investor",
          "type": "address"
        }
      ],
      "name": "getShares",
      "outputs": [
        {
          "internalType": "uint256",
          "name": "",
          "type": "uint256"
        }
      ],
      "stateMutability": "view",
      "type": "function"
    },
    {
      "inputs": [],
      "name": "getTotalAvailableFunds",
      "outputs": [
        {
          "internalType": "uint256",
          "name": "",
          "type": "uint256"
        }
      ],
      "stateMutability": "view",
      "type": "function"
    },
    {
      "inputs": [
        {
          "internalType": "uint256",
          "name": "",
          "type": "uint256"
        }
      ],
      "name": "investors",
      "outputs": [
        {
          "internalType": "address",
          "name": "",
          "type": "address"
        }
      ],
      "stateMutability": "view",
      "type": "function"
    },
    {
      "inputs": [
        {
          "internalType": "address",
          "name": "",
          "type": "address"
        }
      ],
      "name": "isInvestor",
      "outputs": [
        {
          "internalType": "bool",
          "name": "",
          "type": "bool"
        }
      ],
      "stateMutability": "view",
      "type": "function"
    },
    {
      "inputs": [],
      "name": "minVotes",
      "outputs": [
        {
          "internalType": "uint256",
          "name": "",
          "type": "uint256"
        }
      ],
      "stateMutability": "view",
      "type": "function"
    },
    {
      "inputs": [],
      "name": "nextProposalId",
      "outputs": [
        {
          "internalType": "uint256",
          "name": "",
          "type": "uint256"
        }
      ],
      "stateMutability": "view",
      "type": "function"
    },
    {
      "inputs": [
        {
          "internalType": "uint256",
          "name": "",
          "type": "uint256"
        }
      ],
      "name": "proposals",
      "outputs": [
        {
          "internalType": "uint256",
          "name": "id",
          "type": "uint256"
        },
        {
          "internalType": "uint256",
          "name": "amount",
          "type": "uint256"
        },
        {
          "internalType": "uint256",
          "name": "votes",
          "type": "uint256"
        },
        {
          "internalType": "uint256",
          "name": "end",
          "type": "uint256"
        },
        {
          "internalType": "string",
          "name": "name",
          "type": "string"
        },
        {
          "internalType": "address payable",
          "name": "recipient",
          "type": "address"
        },
        {
          "internalType": "bytes",
          "name": "data",
          "type": "bytes"
        },
        {
          "internalType": "bool",
          "name": "executed",
          "type": "bool"
        }
      ],
      "stateMutability": "view",
      "type": "function"
    },
    {
      "inputs": [
        {
          "internalType": "uint256",
          "name": "amount",
          "type": "uint256"
        }
      ],
      "name": "redeemShare",
      "outputs": [],
      "stateMutability": "nonpayable",
      "type": "function"
    },
    {
      "inputs": [
        {
          "internalType": "address",
          "name": "",
          "type": "address"
        }
      ],
      "name": "shares",
      "outputs": [
        {
          "internalType": "uint256",
          "name": "",
          "type": "uint256"
        }
      ],
      "stateMutability": "view",
      "type": "function"
    },
    {
      "inputs": [],
      "name": "totalShares",
      "outputs": [
        {
          "internalType": "uint256",
          "name": "",
          "type": "uint256"
        }
      ],
      "stateMutability": "view",
      "type": "function"
    },
    {
      "inputs": [
        {
          "internalType": "uint256",
          "name": "amount",
          "type": "uint256"
        },
        {
          "internalType": "address payable",
          "name": "to",
          "type": "address"
        }
      ],
      "name": "transferEther",
      "outputs": [],
      "stateMutability": "nonpayable",
      "type": "function"
    },
    {
      "inputs": [
        {
          "internalType": "address payable",
          "name": "to",
          "type": "address"
        },
        {
          "internalType": "bytes",
          "name": "data",
          "type": "bytes"
        },
        {
          "internalType": "uint256",
          "name": "amount",
          "type": "uint256"
        }
      ],
      "name": "transferFunds",
      "outputs": [],
      "stateMutability": "nonpayable",
      "type": "function"
    },
    {
      "inputs": [
        {
          "internalType": "uint256",
          "name": "amount",
          "type": "uint256"
        },
        {
          "internalType": "address",
          "name": "to",
          "type": "address"
        }
      ],
      "name": "transferShare",
      "outputs": [],
      "stateMutability": "nonpayable",
      "type": "function"
    },
    {
      "inputs": [
        {
          "internalType": "uint256",
          "name": "proposalId",
          "type": "uint256"
        }
      ],
      "name": "voteOnProposal",
      "outputs": [],
      "stateMutability": "nonpayable",
      "type": "function"
    },
    {
      "inputs": [],
      "name": "voteTime",
      "outputs": [
        {
          "internalType": "uint256",
          "name": "",
          "type": "uint256"
        }
      ],
      "stateMutability": "view",
      "type": "function"
    },
    {
      "inputs": [
        {
          "internalType": "address",
          "name": "",
          "type": "address"
        },
        {
          "internalType": "uint256",
          "name": "",
          "type": "uint256"
        }
      ],
      "name": "votes",
      "outputs": [
        {
          "internalType": "bool",
          "name": "",
          "type": "bool"
        }
      ],
      "stateMutability": "view",
      "type": "function"
    },
    {
      "stateMutability": "payable",
      "type": "receive"
    }
  ],
  "bytecode": "0x60806040523480156200001157600080fd5b5060405162002f1c38038062002f1c833981810160405281019062000037919062000138565b6000811180156200004a575060c8600954105b6200008c576040517f08c379a000000000000000000000000000000000000000000000000000000000815260040162000083906200021b565b60405180910390fd5b82426200009a91906200026c565b600681905550816008819055508060098190555033600a60006101000a81548173ffffffffffffffffffffffffffffffffffffffff021916908373ffffffffffffffffffffffffffffffffffffffff160217905550505050620002c9565b600080fd5b6000819050919050565b6200011281620000fd565b81146200011e57600080fd5b50565b600081519050620001328162000107565b92915050565b600080600060608486031215620001545762000153620000f8565b5b6000620001648682870162000121565b9350506020620001778682870162000121565b92505060406200018a8682870162000121565b9150509250925092565b600082825260208201905092915050565b7f6d696e566f7465732073686f756c64206265206265747765656e203020616e6460008201527f2032303000000000000000000000000000000000000000000000000000000000602082015250565b60006200020360248362000194565b91506200021082620001a5565b604082019050919050565b600060208201905081810360008301526200023681620001f4565b9050919050565b7f4e487b7100000000000000000000000000000000000000000000000000000000600052601160045260246000fd5b60006200027982620000fd565b91506200028683620000fd565b9250827fffffffffffffffffffffffffffffffffffffffffffffffffffffffffffffffff03821115620002be57620002bd6200023d565b5b828201905092915050565b612c4380620002d96000396000f3fe60806040526004361061014f5760003560e01c80638d258beb116100b6578063bd03e5011161006f578063bd03e5011461049a578063ce7c2ac2146104c3578063cee2a9cf14610500578063d151b5161461053d578063f04da65b14610568578063f851a440146105a55761016f565b80638d258beb1461038a5780639f2524ee146103b3578063a8bb8f3a146103f0578063add68edc1461041b578063b2f5a54c14610444578063bcf93dd61461046f5761016f565b80633feb5f2b116101085780633feb5f2b1461028b57806346fcff4c146102c857806373e888fd146102f35780637a6230f61461030f578063868643df1461033857806387cf67ba146103615761016f565b8063013cf08b14610174578063039383e6146101b85780632ab09d14146101e15780633a98ef391461020c5780633cc228fd146102375780633ee0c77d146102625761016f565b3661016f5734600560008282546101669190611adb565b92505081905550005b600080fd5b34801561018057600080fd5b5061019b60048036038101906101969190611b71565b6105d0565b6040516101af989796959493929190611cf7565b60405180910390f35b3480156101c457600080fd5b506101df60048036038101906101da9190611dc1565b610755565b005b3480156101ed57600080fd5b506101f6610973565b6040516102039190611e01565b60405180910390f35b34801561021857600080fd5b50610221610979565b60405161022e9190611e01565b60405180910390f35b34801561024357600080fd5b5061024c61097f565b6040516102599190611e01565b60405180910390f35b34801561026e57600080fd5b5061028960048036038101906102849190611b71565b610985565b005b34801561029757600080fd5b506102b260048036038101906102ad9190611b71565b610a2a565b6040516102bf9190611e2b565b60405180910390f35b3480156102d457600080fd5b506102dd610a69565b6040516102ea9190611e01565b60405180910390f35b61030d60048036038101906103089190611e46565b610a6f565b005b34801561031b57600080fd5b5061033660048036038101906103319190611b71565b610bf8565b005b34801561034457600080fd5b5061035f600480360381019061035a9190611b71565b610e78565b005b34801561036d57600080fd5b5061038860048036038101906103839190612034565b61108d565b005b34801561039657600080fd5b506103b160048036038101906103ac9190612179565b611327565b005b3480156103bf57600080fd5b506103da60048036038101906103d591906121e8565b6114c9565b6040516103e79190612228565b60405180910390f35b3480156103fc57600080fd5b506104056114f8565b6040516104129190611e01565b60405180910390f35b34801561042757600080fd5b50610442600480360381019061043d9190611b71565b611500565b005b34801561045057600080fd5b5061045961175d565b6040516104669190612301565b60405180910390f35b34801561047b57600080fd5b506104846117eb565b6040516104919190611e01565b60405180910390f35b3480156104a657600080fd5b506104c160048036038101906104bc9190612323565b6117f1565b005b3480156104cf57600080fd5b506104ea60048036038101906104e59190611e46565b6118cc565b6040516104f79190611e01565b60405180910390f35b34801561050c57600080fd5b5061052760048036038101906105229190611e46565b6118e4565b6040516105349190612228565b60405180910390f35b34801561054957600080fd5b50610552611904565b60405161055f9190611e01565b60405180910390f35b34801561057457600080fd5b5061058f600480360381019061058a9190611e46565b61190a565b60405161059c9190611e01565b60405180910390f35b3480156105b157600080fd5b506105ba611953565b6040516105c79190611e2b565b60405180910390f35b600360205280600052604060002060009150905080600001549080600101549080600201549080600301549080600401805461060b90612392565b80601f016020809104026020016040519081016040528092919081815260200182805461063790612392565b80156106845780601f1061065957610100808354040283529160200191610684565b820191906000526020600020905b81548152906001019060200180831161066757829003601f168201915b5050505050908060050160009054906101000a900473ffffffffffffffffffffffffffffffffffffffff16908060060180546106bf90612392565b80601f01602080910402602001604051908101604052809291908181526020018280546106eb90612392565b80156107385780601f1061070d57610100808354040283529160200191610738565b820191906000526020600020905b81548152906001019060200180831161071b57829003601f168201915b5050505050908060070160009054906101000a900460ff16905088565b60016000803373ffffffffffffffffffffffffffffffffffffffff1673ffffffffffffffffffffffffffffffffffffffff16815260200190815260200160002060006101000a81548160ff02191690831515021790556107ea576040517f08c379a00000000000000000000000000000000000000000000000000000000081526004016107e190612410565b60405180910390fd5b81600160003373ffffffffffffffffffffffffffffffffffffffff1673ffffffffffffffffffffffffffffffffffffffff16815260200190815260200160002054101561086c576040517f08c379a00000000000000000000000000000000000000000000000000000000081526004016108639061247c565b60405180910390fd5b81600160003373ffffffffffffffffffffffffffffffffffffffff1673ffffffffffffffffffffffffffffffffffffffff16815260200190815260200160002060008282546108bb919061249c565b9250508190555081600160008373ffffffffffffffffffffffffffffffffffffffff1673ffffffffffffffffffffffffffffffffffffffff16815260200190815260200160002060008282546109119190611adb565b9250508190555060016000808373ffffffffffffffffffffffffffffffffffffffff1673ffffffffffffffffffffffffffffffffffffffff16815260200190815260200160002060006101000a81548160ff0219169083151502179055505050565b60075481565b60045481565b60095481565b600a60009054906101000a900473ffffffffffffffffffffffffffffffffffffffff1673ffffffffffffffffffffffffffffffffffffffff163373ffffffffffffffffffffffffffffffffffffffff1614610a15576040517f08c379a0000000000000000000000000000000000000000000000000000000008152600401610a0c9061251c565b60405180910390fd5b8042610a219190611adb565b60068190555050565b600b8181548110610a3a57600080fd5b906000526020600020016000915054906101000a900473ffffffffffffffffffffffffffffffffffffffff1681565b60055481565b6006544210610ab3576040517f08c379a0000000000000000000000000000000000000000000000000000000008152600401610aaa90612588565b60405180910390fd5b600b819080600181540180825580915050600190039060005260206000200160009091909190916101000a81548173ffffffffffffffffffffffffffffffffffffffff021916908373ffffffffffffffffffffffffffffffffffffffff16021790555060016000803373ffffffffffffffffffffffffffffffffffffffff1673ffffffffffffffffffffffffffffffffffffffff16815260200190815260200160002060006101000a81548160ff02191690831515021790555034600160003373ffffffffffffffffffffffffffffffffffffffff1673ffffffffffffffffffffffffffffffffffffffff1681526020019081526020016000206000828254610bbc9190611adb565b925050819055503460046000828254610bd59190611adb565b925050819055503460056000828254610bee9190611adb565b9250508190555050565b600a60009054906101000a900473ffffffffffffffffffffffffffffffffffffffff1673ffffffffffffffffffffffffffffffffffffffff163373ffffffffffffffffffffffffffffffffffffffff1614610c88576040517f08c379a0000000000000000000000000000000000000000000000000000000008152600401610c7f9061251c565b60405180910390fd5b60006003600083815260200190815260200160002090508060030154421015610ce6576040517f08c379a0000000000000000000000000000000000000000000000000000000008152600401610cdd9061261a565b60405180910390fd5b8060070160009054906101000a900460ff1615610d38576040517f08c379a0000000000000000000000000000000000000000000000000000000008152600401610d2f90612686565b60405180910390fd5b60095460c86004548360020154610d4f91906126d5565b610d599190612706565b1015610d9a576040517f08c379a0000000000000000000000000000000000000000000000000000000008152600401610d91906127d2565b60405180910390fd5b60008160050160009054906101000a900473ffffffffffffffffffffffffffffffffffffffff1673ffffffffffffffffffffffffffffffffffffffff16826001015483600601604051610ded9190612891565b60006040518083038185875af1925050503d8060008114610e2a576040519150601f19603f3d011682016040523d82523d6000602084013e610e2f565b606091505b5050905080610e73576040517f08c379a0000000000000000000000000000000000000000000000000000000008152600401610e6a906128f4565b60405180910390fd5b505050565b60016000803373ffffffffffffffffffffffffffffffffffffffff1673ffffffffffffffffffffffffffffffffffffffff16815260200190815260200160002060006101000a81548160ff0219169083151502179055610f0d576040517f08c379a0000000000000000000000000000000000000000000000000000000008152600401610f0490612410565b60405180910390fd5b80600160003373ffffffffffffffffffffffffffffffffffffffff1673ffffffffffffffffffffffffffffffffffffffff168152602001908152602001600020541015610f8f576040517f08c379a0000000000000000000000000000000000000000000000000000000008152600401610f8690612960565b60405180910390fd5b806005541015610fd4576040517f08c379a0000000000000000000000000000000000000000000000000000000008152600401610fcb906129f2565b60405180910390fd5b80600160003373ffffffffffffffffffffffffffffffffffffffff1673ffffffffffffffffffffffffffffffffffffffff1681526020019081526020016000206000828254611023919061249c565b92505081905550806005600082825461103c919061249c565b925050819055503373ffffffffffffffffffffffffffffffffffffffff166108fc829081150290604051600060405180830381858888f19350505050158015611089573d6000803e3d6000fd5b5050565b60016000803373ffffffffffffffffffffffffffffffffffffffff1673ffffffffffffffffffffffffffffffffffffffff16815260200190815260200160002060006101000a81548160ff0219169083151502179055611122576040517f08c379a000000000000000000000000000000000000000000000000000000000815260040161111990612410565b60405180910390fd5b836005541015611167576040517f08c379a000000000000000000000000000000000000000000000000000000000815260040161115e90612a5e565b60405180910390fd5b604051806101000160405280600754815260200185815260200160008152602001600854426111969190611adb565b81526020018681526020018473ffffffffffffffffffffffffffffffffffffffff16815260200183838080601f016020809104026020016040519081016040528093929190818152602001838380828437600081840152601f19601f82011690508083019250505050505050815260200160001515815250600360006007548152602001908152602001600020600082015181600001556020820151816001015560408201518160020155606082015181600301556080820151816004019080519060200190611267929190611979565b5060a08201518160050160006101000a81548173ffffffffffffffffffffffffffffffffffffffff021916908373ffffffffffffffffffffffffffffffffffffffff16021790555060c08201518160060190805190602001906112cb9291906119ff565b5060e08201518160070160006101000a81548160ff0219169083151502179055509050508360056000828254611301919061249c565b925050819055506007600081548092919061131b90612a7e565b91905055505050505050565b600a60009054906101000a900473ffffffffffffffffffffffffffffffffffffffff1673ffffffffffffffffffffffffffffffffffffffff163373ffffffffffffffffffffffffffffffffffffffff16146113b7576040517f08c379a00000000000000000000000000000000000000000000000000000000081526004016113ae9061251c565b60405180910390fd5b6005548111156113fc576040517f08c379a00000000000000000000000000000000000000000000000000000000081526004016113f390612a5e565b60405180910390fd5b806005600082825461140e919061249c565b9250508190555060008373ffffffffffffffffffffffffffffffffffffffff16828460405161143d9190612af8565b60006040518083038185875af1925050503d806000811461147a576040519150601f19603f3d011682016040523d82523d6000602084013e61147f565b606091505b50509050806114c3576040517f08c379a00000000000000000000000000000000000000000000000000000000081526004016114ba906128f4565b60405180910390fd5b50505050565b60026020528160005260406000206020528060005260406000206000915091509054906101000a900460ff1681565b600047905090565b60016000803373ffffffffffffffffffffffffffffffffffffffff1673ffffffffffffffffffffffffffffffffffffffff16815260200190815260200160002060006101000a81548160ff0219169083151502179055611595576040517f08c379a000000000000000000000000000000000000000000000000000000000815260040161158c90612410565b60405180910390fd5b600060036000838152602001908152602001600020905060001515600260003373ffffffffffffffffffffffffffffffffffffffff1673ffffffffffffffffffffffffffffffffffffffff168152602001908152602001600020600084815260200190815260200160002060009054906101000a900460ff16151514611650576040517f08c379a000000000000000000000000000000000000000000000000000000000815260040161164790612b81565b60405180910390fd5b80600301544210611696576040517f08c379a000000000000000000000000000000000000000000000000000000000815260040161168d90612bed565b60405180910390fd5b6001600260003373ffffffffffffffffffffffffffffffffffffffff1673ffffffffffffffffffffffffffffffffffffffff168152602001908152602001600020600084815260200190815260200160002060006101000a81548160ff021916908315150217905550600160003373ffffffffffffffffffffffffffffffffffffffff1673ffffffffffffffffffffffffffffffffffffffff168152602001908152602001600020548160020160008282546117529190611adb565b925050819055505050565b6060600b8054806020026020016040519081016040528092919081815260200182805480156117e157602002820191906000526020600020905b8160009054906101000a900473ffffffffffffffffffffffffffffffffffffffff1673ffffffffffffffffffffffffffffffffffffffff1681526020019060010190808311611797575b5050505050905090565b60085481565b600a60009054906101000a900473ffffffffffffffffffffffffffffffffffffffff1673ffffffffffffffffffffffffffffffffffffffff163373ffffffffffffffffffffffffffffffffffffffff1614611881576040517f08c379a00000000000000000000000000000000000000000000000000000000081526004016118789061251c565b60405180910390fd5b8073ffffffffffffffffffffffffffffffffffffffff166108fc839081150290604051600060405180830381858888f193505050501580156118c7573d6000803e3d6000fd5b505050565b60016020528060005260406000206000915090505481565b60006020528060005260406000206000915054906101000a900460ff1681565b60065481565b6000600160008373ffffffffffffffffffffffffffffffffffffffff1673ffffffffffffffffffffffffffffffffffffffff168152602001908152602001600020549050919050565b600a60009054906101000a900473ffffffffffffffffffffffffffffffffffffffff1681565b82805461198590612392565b90600052602060002090601f0160209004810192826119a757600085556119ee565b82601f106119c057805160ff19168380011785556119ee565b828001600101855582156119ee579182015b828111156119ed5782518255916020019190600101906119d2565b5b5090506119fb9190611a85565b5090565b828054611a0b90612392565b90600052602060002090601f016020900481019282611a2d5760008555611a74565b82601f10611a4657805160ff1916838001178555611a74565b82800160010185558215611a74579182015b82811115611a73578251825591602001919060010190611a58565b5b509050611a819190611a85565b5090565b5b80821115611a9e576000816000905550600101611a86565b5090565b6000819050919050565b7f4e487b7100000000000000000000000000000000000000000000000000000000600052601160045260246000fd5b6000611ae682611aa2565b9150611af183611aa2565b9250827fffffffffffffffffffffffffffffffffffffffffffffffffffffffffffffffff03821115611b2657611b25611aac565b5b828201905092915050565b6000604051905090565b600080fd5b600080fd5b611b4e81611aa2565b8114611b5957600080fd5b50565b600081359050611b6b81611b45565b92915050565b600060208284031215611b8757611b86611b3b565b5b6000611b9584828501611b5c565b91505092915050565b611ba781611aa2565b82525050565b600081519050919050565b600082825260208201905092915050565b60005b83811015611be7578082015181840152602081019050611bcc565b83811115611bf6576000848401525b50505050565b6000601f19601f8301169050919050565b6000611c1882611bad565b611c228185611bb8565b9350611c32818560208601611bc9565b611c3b81611bfc565b840191505092915050565b600073ffffffffffffffffffffffffffffffffffffffff82169050919050565b6000611c7182611c46565b9050919050565b611c8181611c66565b82525050565b600081519050919050565b600082825260208201905092915050565b6000611cae82611c87565b611cb88185611c92565b9350611cc8818560208601611bc9565b611cd181611bfc565b840191505092915050565b60008115159050919050565b611cf181611cdc565b82525050565b600061010082019050611d0d600083018b611b9e565b611d1a602083018a611b9e565b611d276040830189611b9e565b611d346060830188611b9e565b8181036080830152611d468187611c0d565b9050611d5560a0830186611c78565b81810360c0830152611d678185611ca3565b9050611d7660e0830184611ce8565b9998505050505050505050565b6000611d8e82611c46565b9050919050565b611d9e81611d83565b8114611da957600080fd5b50565b600081359050611dbb81611d95565b92915050565b60008060408385031215611dd857611dd7611b3b565b5b6000611de685828601611b5c565b9250506020611df785828601611dac565b9150509250929050565b6000602082019050611e166000830184611b9e565b92915050565b611e2581611d83565b82525050565b6000602082019050611e406000830184611e1c565b92915050565b600060208284031215611e5c57611e5b611b3b565b5b6000611e6a84828501611dac565b91505092915050565b600080fd5b600080fd5b7f4e487b7100000000000000000000000000000000000000000000000000000000600052604160045260246000fd5b611eb582611bfc565b810181811067ffffffffffffffff82111715611ed457611ed3611e7d565b5b80604052505050565b6000611ee7611b31565b9050611ef38282611eac565b919050565b600067ffffffffffffffff821115611f1357611f12611e7d565b5b611f1c82611bfc565b9050602081019050919050565b82818337600083830152505050565b6000611f4b611f4684611ef8565b611edd565b905082815260208101848484011115611f6757611f66611e78565b5b611f72848285611f29565b509392505050565b600082601f830112611f8f57611f8e611e73565b5b8135611f9f848260208601611f38565b91505092915050565b611fb181611c66565b8114611fbc57600080fd5b50565b600081359050611fce81611fa8565b92915050565b600080fd5b600080fd5b60008083601f840112611ff457611ff3611e73565b5b8235905067ffffffffffffffff81111561201157612010611fd4565b5b60208301915083600182028301111561202d5761202c611fd9565b5b9250929050565b6000806000806000608086880312156120505761204f611b3b565b5b600086013567ffffffffffffffff81111561206e5761206d611b40565b5b61207a88828901611f7a565b955050602061208b88828901611b5c565b945050604061209c88828901611fbf565b935050606086013567ffffffffffffffff8111156120bd576120bc611b40565b5b6120c988828901611fde565b92509250509295509295909350565b600067ffffffffffffffff8211156120f3576120f2611e7d565b5b6120fc82611bfc565b9050602081019050919050565b600061211c612117846120d8565b611edd565b90508281526020810184848401111561213857612137611e78565b5b612143848285611f29565b509392505050565b600082601f8301126121605761215f611e73565b5b8135612170848260208601612109565b91505092915050565b60008060006060848603121561219257612191611b3b565b5b60006121a086828701611fbf565b935050602084013567ffffffffffffffff8111156121c1576121c0611b40565b5b6121cd8682870161214b565b92505060406121de86828701611b5c565b9150509250925092565b600080604083850312156121ff576121fe611b3b565b5b600061220d85828601611dac565b925050602061221e85828601611b5c565b9150509250929050565b600060208201905061223d6000830184611ce8565b92915050565b600081519050919050565b600082825260208201905092915050565b6000819050602082019050919050565b61227881611d83565b82525050565b600061228a838361226f565b60208301905092915050565b6000602082019050919050565b60006122ae82612243565b6122b8818561224e565b93506122c38361225f565b8060005b838110156122f45781516122db888261227e565b97506122e683612296565b9250506001810190506122c7565b5085935050505092915050565b6000602082019050818103600083015261231b81846122a3565b905092915050565b6000806040838503121561233a57612339611b3b565b5b600061234885828601611b5c565b925050602061235985828601611fbf565b9150509250929050565b7f4e487b7100000000000000000000000000000000000000000000000000000000600052602260045260246000fd5b600060028204905060018216806123aa57607f821691505b602082108114156123be576123bd612363565b5b50919050565b7f6572726f723a204e6f7420696e766573746f7200000000000000000000000000600082015250565b60006123fa601383611bb8565b9150612405826123c4565b602082019050919050565b60006020820190508181036000830152612429816123ed565b9050919050565b7f6572726f723a20696e73756666696369656e7420736861726573000000000000600082015250565b6000612466601a83611bb8565b915061247182612430565b602082019050919050565b6000602082019050818103600083015261249581612459565b9050919050565b60006124a782611aa2565b91506124b283611aa2565b9250828210156124c5576124c4611aac565b5b828203905092915050565b7f6572726f723a206e6e6f742061646d696e000000000000000000000000000000600082015250565b6000612506601183611bb8565b9150612511826124d0565b602082019050919050565b60006020820190508181036000830152612535816124f9565b9050919050565b7f6572726f723a20636f6e747269627574696f6e206f7665720000000000000000600082015250565b6000612572601883611bb8565b915061257d8261253c565b602082019050919050565b600060208201905081810360008301526125a181612565565b9050919050565b7f6572726f723a2063616e6e6f742065786563757465206265666f726520656e6460008201527f206f662070726f706f73616c0000000000000000000000000000000000000000602082015250565b6000612604602c83611bb8565b915061260f826125a8565b604082019050919050565b60006020820190508181036000830152612633816125f7565b9050919050565b7f6572726f723a2070726f706f73616c20616c7265616479206578656375746564600082015250565b6000612670602083611bb8565b915061267b8261263a565b602082019050919050565b6000602082019050818103600083015261269f81612663565b9050919050565b7f4e487b7100000000000000000000000000000000000000000000000000000000600052601260045260246000fd5b60006126e082611aa2565b91506126eb83611aa2565b9250826126fb576126fa6126a6565b5b828204905092915050565b600061271182611aa2565b915061271c83611aa2565b9250817fffffffffffffffffffffffffffffffffffffffffffffffffffffffffffffffff048311821515161561275557612754611aac565b5b828202905092915050565b7f6572726f723a2063616e6e6f7420657865637574652070726f706f73616c207760008201527f69746820766f7465732062656c6f77206d696e566f7465730000000000000000602082015250565b60006127bc603883611bb8565b91506127c782612760565b604082019050919050565b600060208201905081810360008301526127eb816127af565b9050919050565b600081905092915050565b60008190508160005260206000209050919050565b6000815461281f81612392565b61282981866127f2565b94506001821660008114612844576001811461285557612888565b60ff19831686528186019350612888565b61285e856127fd565b60005b8381101561288057815481890152600182019150602081019050612861565b838801955050505b50505092915050565b600061289d8284612812565b915081905092915050565b7f6572726f723a207478206661696c656400000000000000000000000000000000600082015250565b60006128de601083611bb8565b91506128e9826128a8565b602082019050919050565b6000602082019050818103600083015261290d816128d1565b9050919050565b7f6572726f723a206e6f7420656e6f756768207368617265730000000000000000600082015250565b600061294a601883611bb8565b915061295582612914565b602082019050919050565b600060208201905081810360008301526129798161293d565b9050919050565b7f6572726f723a206e6f7420656e6f75676820617661696c61626c652066756e6460008201527f7300000000000000000000000000000000000000000000000000000000000000602082015250565b60006129dc602183611bb8565b91506129e782612980565b604082019050919050565b60006020820190508181036000830152612a0b816129cf565b9050919050565b7f6572726f723a20696e73756666696369656e742066756e647300000000000000600082015250565b6000612a48601983611bb8565b9150612a5382612a12565b602082019050919050565b60006020820190508181036000830152612a7781612a3b565b9050919050565b6000612a8982611aa2565b91507fffffffffffffffffffffffffffffffffffffffffffffffffffffffffffffffff821415612abc57612abb611aac565b5b600182019050919050565b6000612ad282611c87565b612adc81856127f2565b9350612aec818560208601611bc9565b80840191505092915050565b6000612b048284612ac7565b915081905092915050565b7f6572726f723a20696e766573746f722063616e206f6e6c7920766f7465206f6e60008201527f6365000000000000000000000000000000000000000000000000000000000000602082015250565b6000612b6b602283611bb8565b9150612b7682612b0f565b604082019050919050565b60006020820190508181036000830152612b9a81612b5e565b9050919050565b7f6572726f723a2070726f706f73616c20616c726561647920656e646564000000600082015250565b6000612bd7601d83611bb8565b9150612be282612ba1565b602082019050919050565b60006020820190508181036000830152612c0681612bca565b905091905056fea26469706673582212205f0bc368c4359ea91a7722cb72ba12ce0fa6543dbe579ad547e34034c7c29c0864736f6c634300080a0033",
  "linkReferences": {},
  "deployedLinkReferences": {}
}